{
  "contractName": "DemoContract",
  "abi": [
    {
      "constant": true,
      "inputs": [
        {
          "name": "",
          "type": "uint256"
        }
      ],
      "name": "demodata",
      "outputs": [
        {
          "name": "name",
          "type": "string"
        },
        {
          "name": "id",
          "type": "uint256"
        }
      ],
      "payable": false,
      "stateMutability": "view",
      "type": "function"
    },
    {
      "constant": false,
      "inputs": [
        {
          "name": "_name",
          "type": "string"
        }
      ],
      "name": "createRandomData",
      "outputs": [],
      "payable": false,
      "stateMutability": "nonpayable",
      "type": "function"
    },
    {
      "constant": true,
      "inputs": [],
      "name": "getData",
      "outputs": [
        {
          "components": [
            {
              "name": "name",
              "type": "string"
            },
            {
              "name": "id",
              "type": "uint256"
            }
          ],
          "name": "",
          "type": "tuple[]"
        }
      ],
      "payable": false,
      "stateMutability": "view",
      "type": "function"
    }
  ],
  "bytecode": "0x60806040526010600055600054600a0a60015534801561001e57600080fd5b5061084a8061002e6000396000f3fe608060405234801561001057600080fd5b50600436106100415760003560e01c806302d308dd146100465780633bc5de301461006257806351166df814610080575b600080fd5b610060600480360361005b9190810190610468565b6100b1565b005b61006a6100cc565b6040516100779190610661565b60405180910390f35b61009a600480360361009591908101906104a9565b6101d7565b6040516100a89291906106a5565b60405180910390f35b60006100bc826102a0565b90506100c882826102e3565b5050565b60606002805480602002602001604051908101604052809291908181526020016000905b828210156101ce5783829060005260206000209060020201604051806040016040529081600082018054600181600116156101000203166002900480601f0160208091040260200160405190810160405280929190818152602001828054600181600116156101000203166002900480156101ac5780601f10610181576101008083540402835291602001916101ac565b820191906000526020600020905b81548152906001019060200180831161018f57829003601f168201915b50505050508152602001600182015481525050815260200190600101906100f0565b50505050905090565b600281815481106101e457fe5b9060005260206000209060020201600091509050806000018054600181600116156101000203166002900480601f0160208091040260200160405190810160405280929190818152602001828054600181600116156101000203166002900480156102905780601f1061026557610100808354040283529160200191610290565b820191906000526020600020905b81548152906001019060200180831161027357829003601f168201915b5050505050908060010154905082565b600080826040516020016102b49190610683565b6040516020818303038152906040528051906020012060001c905060015481816102da57fe5b06915050919050565b60006001600260405180604001604052808681526020018581525090806001815401808255809150509060018203906000526020600020906002020160009091929091909150600082015181600001908051906020019061034592919061035a565b50602082015181600101555050039050505050565b828054600181600116156101000203166002900490600052602060002090601f016020900481019282601f1061039b57805160ff19168380011785556103c9565b828001600101855582156103c9579182015b828111156103c85782518255916020019190600101906103ad565b5b5090506103d691906103da565b5090565b6103fc91905b808211156103f85760008160009055506001016103e0565b5090565b90565b600082601f83011261041057600080fd5b813561042361041e82610702565b6106d5565b9150808252602083016020830185838301111561043f57600080fd5b61044a8382846107a6565b50505092915050565b600081359050610462816107f9565b92915050565b60006020828403121561047a57600080fd5b600082013567ffffffffffffffff81111561049457600080fd5b6104a0848285016103ff565b91505092915050565b6000602082840312156104bb57600080fd5b60006104c984828501610453565b91505092915050565b60006104de8383610606565b905092915050565b60006104f18261073b565b6104fb8185610769565b93508360208202850161050d8561072e565b8060005b85811015610549578484038952815161052a85826104d2565b94506105358361075c565b925060208a01995050600181019050610511565b50829750879550505050505092915050565b600061056682610751565b610570818561078b565b93506105808185602086016107b5565b610589816107e8565b840191505092915050565b600061059f82610746565b6105a9818561077a565b93506105b98185602086016107b5565b6105c2816107e8565b840191505092915050565b60006105d882610746565b6105e2818561078b565b93506105f28185602086016107b5565b6105fb816107e8565b840191505092915050565b600060408301600083015184820360008601526106238282610594565b91505060208301516106386020860182610643565b508091505092915050565b61064c8161079c565b82525050565b61065b8161079c565b82525050565b6000602082019050818103600083015261067b81846104e6565b905092915050565b6000602082019050818103600083015261069d818461055b565b905092915050565b600060408201905081810360008301526106bf81856105cd565b90506106ce6020830184610652565b9392505050565b6000604051905081810181811067ffffffffffffffff821117156106f857600080fd5b8060405250919050565b600067ffffffffffffffff82111561071957600080fd5b601f19601f8301169050602081019050919050565b6000602082019050919050565b600081519050919050565b600081519050919050565b600081519050919050565b6000602082019050919050565b600082825260208201905092915050565b600082825260208201905092915050565b600082825260208201905092915050565b6000819050919050565b82818337600083830152505050565b60005b838110156107d35780820151818401526020810190506107b8565b838111156107e2576000848401525b50505050565b6000601f19601f8301169050919050565b6108028161079c565b811461080d57600080fd5b5056fea265627a7a72305820d4852bbe1a47d15cbb575295c5305e97bca5259c0dfe115ec2a3b605328d24da6c6578706572696d656e74616cf50037",
  "source": "pragma solidity ^0.5.0;\npragma experimental ABIEncoderV2;\n\ncontract DemoContract {\n\n    uint dnaDigits = 16;\n    uint dnaModulus = 10 ** dnaDigits;\n\n    struct DemoData {\n        string name;\n        uint id;\n    }\n\n    DemoData[] public demodata;\n\n    function _createDemoData(string memory _name, uint _id) private {\n        uint id = demodata.push(DemoData(_name, _id)) - 1;\n    }\n\n    function _generateRandomId(string memory _str) private view returns (uint) {\n        uint rand = uint(keccak256(abi.encode(_str)));\n        return rand % dnaModulus;\n    }\n\n    function createRandomData(string memory _name) public {\n        uint randId = _generateRandomId(_name);\n        _createDemoData(_name, randId);\n    }\n\n    function getData() public view returns (DemoData[] memory){\n        return demodata;\n    }\n}\n\n\n",
  "sourcePath": "/Users/a-saito/program/nuxt-truffle-sample-app/truffle/contracts/DemoContract.sol",
  "compiler": {
    "name": "solc",
    "version": "0.5.8+commit.23d335f2.Emscripten.clang"
  },
  "schemaVersion": "3.0.14",
  "updatedAt": "2019-09-06T12:42:08.914Z",
  "devdoc": {
    "methods": {}
  },
  "userdoc": {
    "methods": {}
  }
}