{
  "contractName": "ZombieFactory",
  "abi": [
    {
      "constant": true,
      "inputs": [
        {
          "name": "",
          "type": "uint256"
        }
      ],
      "name": "zombies",
      "outputs": [
        {
          "name": "name",
          "type": "string"
        },
        {
          "name": "dna",
          "type": "uint256"
        }
      ],
      "payable": false,
      "stateMutability": "view",
      "type": "function"
    },
    {
      "constant": true,
      "inputs": [
        {
          "name": "",
          "type": "uint256"
        }
      ],
      "name": "zombieToOwner",
      "outputs": [
        {
          "name": "",
          "type": "address"
        }
      ],
      "payable": false,
      "stateMutability": "view",
      "type": "function"
    },
    {
      "anonymous": false,
      "inputs": [
        {
          "indexed": false,
          "name": "zombieId",
          "type": "uint256"
        },
        {
          "indexed": false,
          "name": "name",
          "type": "string"
        },
        {
          "indexed": false,
          "name": "dna",
          "type": "uint256"
        }
      ],
      "name": "NewZombie",
      "type": "event"
    },
    {
      "constant": false,
      "inputs": [
        {
          "name": "_name",
          "type": "string"
        }
      ],
      "name": "createRandomZombie",
      "outputs": [],
      "payable": false,
      "stateMutability": "nonpayable",
      "type": "function"
    },
    {
      "constant": true,
      "inputs": [],
      "name": "getZombies",
      "outputs": [
        {
          "components": [
            {
              "name": "name",
              "type": "string"
            },
            {
              "name": "dna",
              "type": "uint256"
            }
          ],
          "name": "",
          "type": "tuple"
        }
      ],
      "payable": false,
      "stateMutability": "view",
      "type": "function"
    }
  ],
  "bytecode": "0x6080604052600e600055600054600a0a60015534801561001e57600080fd5b506108e58061002e6000396000f3fe608060405234801561001057600080fd5b506004361061004c5760003560e01c80632052465e14610051578063528b7b8f146100825780637bff0a01146100b2578063fb471bd5146100ce575b600080fd5b61006b600480360361006691908101906105a7565b6100ec565b604051610079929190610722565b60405180910390f35b61009c600480360361009791908101906105a7565b6101b5565b6040516100a991906106e5565b60405180910390f35b6100cc60048036036100c79190810190610566565b6101e8565b005b6100d6610203565b6040516100e39190610752565b60405180910390f35b600281815481106100f957fe5b9060005260206000209060020201600091509050806000018054600181600116156101000203166002900480601f0160208091040260200160405190810160405280929190818152602001828054600181600116156101000203166002900480156101a55780601f1061017a576101008083540402835291602001916101a5565b820191906000526020600020905b81548152906001019060200180831161018857829003601f168201915b5050505050908060010154905082565b60036020528060005260406000206000915054906101000a900473ffffffffffffffffffffffffffffffffffffffff1681565b60006101f3826102e3565b90506101ff8282610326565b5050565b61020b61043e565b600260008154811061021957fe5b9060005260206000209060020201604051806040016040529081600082018054600181600116156101000203166002900480601f0160208091040260200160405190810160405280929190818152602001828054600181600116156101000203166002900480156102cb5780601f106102a0576101008083540402835291602001916102cb565b820191906000526020600020905b8154815290600101906020018083116102ae57829003601f168201915b50505050508152602001600182015481525050905090565b600080826040516020016102f79190610700565b6040516020818303038152906040528051906020012060001c9050600154818161031d57fe5b06915050919050565b600060016002604051806040016040528086815260200185815250908060018154018082558091505090600182039060005260206000209060020201600090919290919091506000820151816000019080519060200190610388929190610458565b50602082015181600101555050039050336003600083815260200190815260200160002060006101000a81548173ffffffffffffffffffffffffffffffffffffffff021916908373ffffffffffffffffffffffffffffffffffffffff160217905550600460003373ffffffffffffffffffffffffffffffffffffffff1673ffffffffffffffffffffffffffffffffffffffff16815260200190815260200160002060008154809291906001019190505550505050565b604051806040016040528060608152602001600081525090565b828054600181600116156101000203166002900490600052602060002090601f016020900481019282601f1061049957805160ff19168380011785556104c7565b828001600101855582156104c7579182015b828111156104c65782518255916020019190600101906104ab565b5b5090506104d491906104d8565b5090565b6104fa91905b808211156104f65760008160009055506001016104de565b5090565b90565b600082601f83011261050e57600080fd5b813561052161051c826107a1565b610774565b9150808252602083016020830185838301111561053d57600080fd5b610548838284610841565b50505092915050565b60008135905061056081610894565b92915050565b60006020828403121561057857600080fd5b600082013567ffffffffffffffff81111561059257600080fd5b61059e848285016104fd565b91505092915050565b6000602082840312156105b957600080fd5b60006105c784828501610551565b91505092915050565b6105d981610805565b82525050565b60006105ea826107d8565b6105f481856107f4565b9350610604818560208601610850565b61060d81610883565b840191505092915050565b6000610623826107cd565b61062d81856107e3565b935061063d818560208601610850565b61064681610883565b840191505092915050565b600061065c826107cd565b61066681856107f4565b9350610676818560208601610850565b61067f81610883565b840191505092915050565b600060408301600083015184820360008601526106a78282610618565b91505060208301516106bc60208601826106c7565b508091505092915050565b6106d081610837565b82525050565b6106df81610837565b82525050565b60006020820190506106fa60008301846105d0565b92915050565b6000602082019050818103600083015261071a81846105df565b905092915050565b6000604082019050818103600083015261073c8185610651565b905061074b60208301846106d6565b9392505050565b6000602082019050818103600083015261076c818461068a565b905092915050565b6000604051905081810181811067ffffffffffffffff8211171561079757600080fd5b8060405250919050565b600067ffffffffffffffff8211156107b857600080fd5b601f19601f8301169050602081019050919050565b600081519050919050565b600081519050919050565b600082825260208201905092915050565b600082825260208201905092915050565b600061081082610817565b9050919050565b600073ffffffffffffffffffffffffffffffffffffffff82169050919050565b6000819050919050565b82818337600083830152505050565b60005b8381101561086e578082015181840152602081019050610853565b8381111561087d576000848401525b50505050565b6000601f19601f8301169050919050565b61089d81610837565b81146108a857600080fd5b5056fea265627a7a723058205f3d614fbf85592fe276ccdfddc8793f0f73985ac03750b60ea53e57bb031ef86c6578706572696d656e74616cf50037",
  "source": "pragma solidity ^0.5.0;\npragma experimental ABIEncoderV2;\n\n\ncontract ZombieFactory {\n\n    // イベントをここで宣言するのだ\n    event NewZombie(uint zombieId, string name, uint dna);\n\n    uint dnaDigits = 14;\n    uint dnaModulus = 10 ** dnaDigits;\n\n    struct Zombie {\n        string name;\n        uint dna;\n    }\n\n    Zombie[] public zombies;\n\n    mapping (uint => address) public zombieToOwner;\n    mapping (address => uint) ownerZombieCount;\n\n    function _createZombie(string memory _name, uint _dna) private {\n        // zombies.push(Zombie(_name, _dna));\n        // ここでイベントを発生させるのだ\n        uint id = zombies.push(Zombie(_name, _dna)) - 1;\n        zombieToOwner[id] = msg.sender;\n        ownerZombieCount[msg.sender]++;\n\n        // emit NewZombie(id, _name, _dna);\n    }\n\n    function _generateRandomDna(string memory _str) private view returns (uint) {\n        uint rand = uint(keccak256(abi.encode(_str)));\n        return rand % dnaModulus;\n    }\n\n    function createRandomZombie(string memory _name) public {\n        uint randDna = _generateRandomDna(_name);\n        _createZombie(_name, randDna);\n    }\n\n    function getZombies() public view returns (Zombie memory){\n        return zombies[0];\n    }\n}\n\n\n",
  "sourcePath": "/home/a-saito/program/dapps/nuxt-truffle-sample-app/truffle/contracts/Contract.sol",
  "compiler": {
    "name": "solc",
    "version": "0.5.8+commit.23d335f2.Emscripten.clang"
  },
  "schemaVersion": "3.0.12",
  "updatedAt": "2019-09-05T22:36:46.822Z",
  "devdoc": {
    "methods": {}
  },
  "userdoc": {
    "methods": {}
  }
}